S01700004763634170706C69636174696F6E312E737265635B
S11300000C942A000C940A010C943C000C943C00BF
S11300100C943C000C943C000C943C000C943C006C
S11300200C943C000C943C000C943C000C943C005C
S11300300C943C000C943C000C943C000C943C004C
S11300400C943C000C943C000C943C000C943C003C
S11300500C943C0011241FBECFE5D8E0DEBFCDBF19
S113006020E0A0E6B0E001C01D92A336B207E1F79C
S11300700E9454010C9471050C940000809361005B
S1130080089580936200089580936000089561E468
S113009080E00E94490180916200813029F462E489
S11300A082E00E94490103C080E00E943E0088E88B
S11300B093E10E94AE0261E480E00E944D018091D0
S11300C06200813029F462E482E00E944D0103C0A1
S11300D080E00E943E00109260000895CF93C1E03A
S11300E014C061E481E00E9451018091620081307A
S11300F021F462E40E94510103C081E00E943E00A9
S113010088EE93E00E94AE02CF5FCB3050F361E4FF
S113011081E00E944D0180916200813021F462E40B
S11301200E944D0103C081E00E943E00CF910895DA
S113013061E482E00E94490180916200813029F4E7
S113014062E480E00E94490103C082E00E943E0014
S113015088E893E10E94AE0261E482E00E944D01CE
S113016080916200813029F462E480E00E944D01B4
S113017003C082E00E943E0080916000813019F447
S113018080E00E944100089561E480E00E944501FE
S113019061E481E00E94450161E482E00E9445013E
S11301A062E480E00E94450162E481E00E9445012E
S11301B062E482E00E94450164E482E00E9441011D
S11301C081B38B7F81BB789485B7816085BF85B708
S11301D0826085BF8BB780648BBF0E9447000E94FA
S11301E06E0080916200813011F40E9444000E94EC
S11301F098000E946E0080916200813071F78091B6
S113020060008111EACF0E949800109262000E945F
S11302106E00E3CF1F920F920FB60F9211242F930B
S11302203F934F935F936F937F938F939F93AF937A
S1130230BF93EF93FF9380916200811111C081E01D
S11302408093620080916100882321F0813021F045
S113025080E003C082E001C081E062E40E944901C1
S1130260FF91EF91BF91AF919F918F917F916F918A
S11302705F914F913F912F910F900FBE0F901F9060
S1130280189540E00E945901089541E00E945901E7
S1130290089541E00E94E401089540E00E94E401D1
S11302A008950E946F0208950E94C40080E090E0C7
S11302B00895623459F118F4613441F008956334B7
S11302C009F444C0643409F460C0089541110EC0B7
S11302D04AB321E030E0B90102C0660F771F8A9566
S11302E0E2F7CB01809584238ABB0895413009F05D
S11302F06AC04AB321E030E0B90102C0660F771F3B
S11303008A95E2F7CB01842B8ABB089541110EC074
S113031047B321E030E0B90102C0660F771F8A9528
S1130320E2F7CB018095842387BB0895413009F01F
S11303304AC047B321E030E0B90102C0660F771F1D
S11303408A95E2F7CB01842B87BB089541110EC037
S113035044B321E030E0B90102C0660F771F8A95EB
S1130360E2F7CB018095842384BB0895413059F58D
S113037044B321E030E0B90102C0660F771F8A95CB
S1130380E2F7CB01842B84BB089541110EC041B325
S113039021E030E0B90102C0660F771F8A95E2F7C9
S11303A0CB018095842381BB0895413061F441B32E
S11303B021E030E0B90102C0660F771F8A95E2F7A9
S11303C0CB01842B81BB0895623459F118F4613454
S11303D041F00895633409F444C0643409F460C0FE
S11303E0089541110EC04BB321E030E0B90102C0C1
S11303F0660F771F8A95E2F7CB01809584238BBB28
S11304000895413009F06AC04BB321E030E0B901EE
S113041002C0660F771F8A95E2F7CB01842B8BBB52
S1130420089541110EC048B321E030E0B90102C083
S1130430660F771F8A95E2F7CB018095842388BBEA
S11304400895413009F04AC048B321E030E0B901D1
S113045002C0660F771F8A95E2F7CB01842B88BB15
S1130460089541110EC045B321E030E0B90102C046
S1130470660F771F8A95E2F7CB018095842385BBAD
S11304800895413059F545B321E030E0B90102C087
S1130490660F771F8A95E2F7CB01842B85BB0895FD
S11304A041110EC042B321E030E0B90102C0660F31
S11304B0771F8A95E2F7CB018095842382BB089548
S11304C0413061F442B321E030E0B90102C0660F6B
S11304D0771F8A95E2F7CB01842B82BB089562349F
S11304E0B1F018F4613431F008956334E9F0643400
S11304F041F108954BB321E030E0B90102C0660F29
S1130500771F8A95E2F7CB0184278BBB089548B304
S113051021E030E0B90102C0660F771F8A95E2F747
S1130520CB01842788BB089545B321E030E0B901AD
S113053002C0660F771F8A95E2F7CB01842785BB3B
S1130540089542B321E030E0B90102C0660F771F7D
S11305508A95E2F7CB01842782BB08958F929F92FC
S1130560AF92BF92CF92DF92EF92FF92CF93DF933D
S113057013BE12BEBC01990F880B990B0E94800414
S11305806B017C0120E030E04AE754E40E94D6038A
S11305904B015C012DEB37E346E85EE3C701B6018E
S11305A00E94D1038823CCF4A50194016DEB77E379
S11305B086E89EE30E944D032DEB37E346E85AE3B9
S11305C00E94D6030E94BA030F2EC12CD12CF0E84E
S11305D0EF2EFFE3FF2EF02D38C02DEB37E346E876
S11305E05EE3C701B6010E94D103882319F12DEB04
S11305F037E346E85EE3C501B4010E94D6030E94D6
S1130600BA036B017C012DEB37E346E85AE3C501DD
S1130610B4010E94D603A70196010E94D6039B0150
S1130620AC0160E070E080E893E40E944D030E9416
S1130630BA030BC060E070E0CB010F2EC12CD12CAB
S1130640F0E8EF2EFFE3FF2EF02D0E944F0462BF6F
S113065083B7846083BF83B7816083BFC0E0D0E089
S113066007C008B600FEFDCF88B7816088BF219619
S1130670C701B6010E944804C617D70790F318BEF5
S113068013BE12BEDF91CF91FF90EF90DF90CF9019
S1130690BF90AF909F908F9008955058BB27AA2782
S11306A00E9465030C941F050E94110538F00E94F6
S11306B0180520F039F49F3F19F426F40C940E0524
S11306C00EF4E095E7FB0C94DF04E92F0E9430055B
S11306D058F3BA17620773078407950720F079F473
S11306E0A6F50C946A050EF4E0950B2EBA2FA02DF6
S11306F00B01B90190010C01CA01A0011124FF27CB
S1130700591B99F0593F50F4503E68F11A16F040C5
S1130710A22F232F342F4427585FF3CF46953795C4
S11307202795A795F0405395C9F77EF41F16BA0B89
S1130730620B730B840BBAF09150A1F0FF0FBB1F37
S1130740661F771F881FC2F70EC0BA0F621F731F80
S1130750841F48F4879577956795B795F7959E3FDD
S113076008F0B0CF9395880F08F09927EE0F97956E
S1130770879508950E94520590F09F3748F491118F
S113078016F40C946B0560E070E080E89FE3089534
S113079026F01B16611D711D811D0C94E5040C943B
S11307A000050E94BB0408F481E008950E94EA0356
S11307B00C941F050E94180558F00E94110540F082
S11307C029F45F3F29F00C94DF0451110C946B055C
S11307D00C940E050E94300568F39923B1F3552358
S11307E091F3951B550BBB27AA2762177307840740
S11307F038F09F5F5F4F220F331F441FAA1FA9F3D6
S113080035D00E2E3AF0E0E832D091505040E695C3
S1130810001CCAF72BD0FE2F29D0660F771F881F24
S1130820BB1F261737074807AB07B0E809F0BB0B17
S1130830802DBF01FF2793585F4F3AF09E3F51052B
S113084078F00C94DF040C946B055F3FE4F3983E5E
S1130850D4F3869577956795B795F7959F5FC9F714
S1130860880F911D9695879597F90895E1E0660F95
S1130870771F881FBB1F621773078407BA0720F00E
S1130880621B730B840BBA0BEE1F88F7E095089577
S11308900E944F046894B1110C946B0508950E9452
S11308A0380588F09F5798F0B92F9927B751B0F0C1
S11308B0E1F0660F771F881F991F1AF0BA95C9F7E0
S11308C014C0B13091F00E946A05B1E008950C940F
S11308D06A05672F782F8827B85F39F0B93FCCF3C2
S11308E0869577956795B395D9F73EF4909580955D
S11308F0709561957F4F8F4F9F4F0895E89409C07D
S113090097FB3EF490958095709561957F4F8F4F3E
S11309109F4F9923A9F0F92F96E9BB279395F69554
S1130920879577956795B795F111F8CFFAF4BB0FD2
S113093011F460FF1BC06F5F7F4F8F4F9F4F16C036
S1130940882311F096E911C0772321F09EE8872FC0
S1130950762F05C0662371F096E8862F70E060E07C
S11309602AF09A95660F771F881FDAF7880F9695F5
S1130970879597F90895990F0008550FAA0BE0E899
S1130980FEEF16161706E807F907C0F0121613064D
S1130990E407F50798F0621B730B840B950B39F48D
S11309A00A2661F0232B242B252B21F408950A26F3
S11309B009F4A140A6958FEF811D811D089597F933
S11309C09F6780E870E060E00895882371F47723DE
S11309D021F09850872B762F07C0662311F49927AE
S11309E00DC09051862B70E060E02AF09A95660F56
S11309F0771F881FDAF7880F9695879597F90895DA
S1130A009F3F31F0915020F4879577956795B7957E
S1130A10880F911D9695879597F908959FEF80EC1F
S1130A20089500240A941616170618060906089550
S1130A3000240A9412161306140605060895092EB6
S1130A400394000C11F4882352F0BB0F40F4BF2B25
S1130A5011F460FF04C06F5F7F4F8F4F9F4F089565
S1130A6057FD9058440F551F59F05F3F71F047955B
S1130A70880F97FB991F61F09F3F79F08795089540
S1130A80121613061406551FF2CF4695F1DF08C05F
S1130A90161617061806991FF1CF8695710561057C
S1130AA0089408950E943805A0F0BEE7B91788F4A9
S1130AB0BB279F3860F41616B11D672F782F88273F
S1130AC0985FF7CF869577956795B11D939596397D
S1130AD0C8F30895E894BB2766277727CB0197F9D5
S1090AE00895F894FFCF15
S9030000FC
