S01700004763634170706C69636174696F6E312E737265635B
S11300000C942A000C943E000C943C000C943C008C
S11300100C943C000C943C000C943C000C943C006C
S11300200C943C000C943C000C943C000C943C005C
S11300300C943C000C943C000C943C000C943C004C
S11300400C943C000C943C000C943C000C943C003C
S11300500C943C0011241FBECFE5D8E0DEBFCDBF19
S113006020E0A0E6B0E001C01D92A236B207E1F79D
S11300700E9488000C9456020C9400001F920F9268
S11300800FB60F9211242F933F934F935F936F9367
S11300907F938F939F93AF93BF93EF93FF9380913D
S11300A06100811111C081E0809361008091600042
S11300B0882321F0813021F080E003C082E001C078
S11300C081E062E40E948000FF91EF91BF91AF91C3
S11300D09F918F917F916F915F914F913F912F915C
S11300E00F900FBE0F901F90189540E00E948D0056
S11300F008950E94C701089541E00E948D0008956B
S113010041E00E942A01089540E00E942A010895D6
S11301100E94350280E090E00895623469F118F499
S1130120613441F08DC0633409F448C0643409F487
S113013066C086C041110FC04AB321E030E0B90166
S113014002C0660F771F8A95E2F7CB01809584235E
S11301508ABB80E00895413009F074C04AB321E0BD
S113016030E0B90102C0660F771F8A95E2F7CB0130
S1130170842B8ABB80E0089541110FC047B321E06E
S113018030E0B90102C0660F771F8A95E2F7CB0110
S11301908095842387BB80E00895413009F054C0E2
S11301A047B321E030E0B90102C0660F771F8A959A
S11301B0E2F7CB01842B87BB80E0089541110FC087
S11301C044B321E030E0B90102C0660F771F8A957D
S11301D0E2F7CB018095842384BB80E0089541300D
S11301E0A9F544B321E030E0B90102C0660F771FDE
S11301F08A95E2F7CB01842B84BB80E008954111FA
S11302000FC041B321E030E0B90102C0660F771F8F
S11302108A95E2F7CB018095842381BB80E0089521
S11302204130B1F441B321E030E0B90102C0660FBE
S1130230771F8A95E2F7CB01842B81BB80E0089578
S113024081E0089583E0089583E0089583E00895AC
S113025083E00895623469F118F4613441F08DC08B
S1130260633409F448C0643409F466C086C041119B
S11302700FC04BB321E030E0B90102C0660F771F15
S11302808A95E2F7CB01809584238BBB80E00895A7
S1130290413009F074C04BB321E030E0B90102C031
S11302A0660F771F8A95E2F7CB01842B8BBB80E026
S11302B0089541110FC048B321E030E0B90102C0F4
S11302C0660F771F8A95E2F7CB018095842388BB5C
S11302D080E00895413009F054C048B321E030E093
S11302E0B90102C0660F771F8A95E2F7CB01842B10
S11302F088BB80E0089541110FC045B321E030E090
S1130300B90102C0660F771F8A95E2F7CB01809589
S1130310842385BB80E008954130A9F545B321E0ED
S113032030E0B90102C0660F771F8A95E2F7CB016E
S1130330842B85BB80E0089541110FC042B321E0B6
S113034030E0B90102C0660F771F8A95E2F7CB014E
S11303508095842382BB80E008954130B1F442B398
S113036021E030E0B90102C0660F771F8A95E2F7F9
S1130370CB01842B82BB80E0089581E0089584E062
S1130380089584E0089584E0089584E00895623433
S113039011F118F4613439F066C06334A1F16434A6
S11303A009F449C060C099B321E030E0B901082ED6
S11303B002C0660F771F0A94E2F7292F30E0262344
S11303C03723B90102C0759567958A95E2F7FA015A
S11303D0608380E0089596B321E030E0B901082EEF
S11303E002C0660F771F0A94E2F7292F30E0262314
S11303F03723B90102C0759567958A95E2F7FA012A
S1130400608380E0089593B321E030E0B901082EC1
S113041002C0660F771F0A94E2F7292F30E02623E3
S11304203723B90102C0759567958A95E2F7FA01F9
S1130430608380E0089590B321E030E0B901082E94
S113044002C0660F771F0A94E2F7292F30E02623B3
S11304503723B90102C0759567958A95E2F7FA01C9
S1130460608380E0089581E00895CF93DF931F9225
S1130470CDB7DEB764E482E00E94750061E480E0F9
S11304800E947C001982AE014F5F5F4F64E482E0FA
S11304900E9479008981811104C061E40E94840072
S11304A0F2CF61E480E00E948000EDCFF894FFCFAA
S9030000FC
